:1000000014C02EC02DC02CC02BC02AC029C028C0AF
:1000100027C026C025C024C023C022C021C020C0C4
:100020001FC01EC01DC01CC01BC011241FBECFE5B9
:10003000D1E0DEBFCDBF10E0A0E6B0E0E6E0F8E042
:1000400002C005900D92A036B107D9F721E0A0E6D5
:10005000B0E001C01D92AC34B207E1F770D3D1C358
:10006000CFCF209160003091610082279327909339
:100070006900809368003695279580FD05C0309310
:10008000610020936000089588E0282784E83827DD
:1000900030936100209360000895FF920F931F93A7
:1000A000CF93DF93182F809363001092640007EAC8
:1000B0000F2EF1EDFF2EF02D909163009170C92F5E
:1000C00080E0D82FD0936600C09365001E3719F4E6
:1000D0001092670002C0CE01C4DFCD2B61F41092F4
:1000E000670080914101873A11F48F2D01C0802F64
:1000F0008093410114C0909167009F5F90936700C7
:10010000953069F48DEBFBD280914101873A11F46F
:100110008F2D01C0802F8093410110926700909134
:1001200063009695909363008DEBE9D29091640003
:100130009F5F90936400983008F4BECFDF91CF9119
:100140001F910F91FF900895CF93DF93EC01888169
:10015000882329F02196A1DF89918111FCCFDF91BD
:10016000CF910895CF93DF93EC0143D380936A003E
:10017000882341F092DF2196CE013BD380936A0021
:100180008111F8CFDF91CF9108958FEF9FEF90937A
:10019000610080936000109262008EE77EDF8091A4
:1001A00062008F5F809362008436B8F38FE190E045
:1001B000D9DF089512B88FEB89B986E483B988ED49
:1001C0008AB9089580916B0090916C00891779F03D
:1001D0008F5F803619F080936B0002C010926B0025
:1001E000E0916B00F0E0E359FF4F8081DDD108958D
:1001F00080E38093CF008093CE008093CD008093E6
:10020000D5008093D4008093D3008093DA0080934C
:10021000D9008EE28093DB0008958F929F92AF9277
:10022000BF92CF92DF92EF92FF920F931F93CF93E3
:10023000DF93E2E4F1E0A2EEB0E088E491E0219106
:100240002D93E817F907D9F71092E800E9EEF0E0EE
:10025000A3EFB0E082EF90E021912D93E817F9072A
:10026000D9F71092FC00EDEFF0E0A8E0B1E087E0F4
:1002700091E021912D93E817F907D9F71092120117
:10028000E9EDF0E0A3E1B1E080EE90E021912D9363
:10029000E817F907D9F710921A018091CD008093E1
:1002A0001B018091CE0080931C018091CF00809330
:1002B0001D018091D00080931E018091D100809318
:1002C0001F01109220018091D30080932101809121
:1002D000D400809322018091D500809323018091E6
:1002E000D600809324018091D7008093250110923D
:1002F00026018091270180932A0180912801809313
:100300002B0110922C018EE280931901C1E001C0F3
:10031000C92F9C2F9F5FEC2FF0E0ED5EFE4F808198
:100320008E32B1F710922D0110922E0110922F01F2
:1003300010923001CC2309F445C000913101109195
:100340003201D0913301B0903401C12CD12C76010F
:10035000C150EC2FF0E0ED5EFE4F208130E02053E5
:100360003109442737FD4095542F602F712F8D2F71
:100370009B2D04D2C60ED71EE81EF91E402F512F0A
:100380006D2F7B2D440F551F661F771FDB01CA01A0
:10039000880F991FAA1FBB1F880F991FAA1FBB1F79
:1003A000480F591F6A1F7B1F042F152FD62FB72EFA
:1003B000C111CECFC0922D01D0922E01E0922F011B
:1003C000F092300180912D0190912E01A0912F018A
:1003D000B09130016C017D01CC0CDD1CEE1CFF1CCA
:1003E000C80ED91EEA1EFB1ED701C601689413F879
:1003F000B695A795979587951694D1F7C80ED91EEF
:10040000EA1EFB1ED701C601689415F8B695A7959C
:10041000979587951694D1F7C80ED91EEA1EFB1E34
:10042000D701C601689416F8B695A7959795879554
:100430001694D1F7C80ED91EEA1EFB1EBB27AF2D9E
:100440009E2D8D2DC80ED91EEA1EFB1ED701C6019A
:10045000072E7AE0B695A795979587957A95D1F767
:10046000702DC0E0C80ED91EEA1EFB1E80E015E00C
:1004700020EA36E841E050E00F2EFAE08F2E912C72
:10048000A12CB12CF02DD0E01BC0892FC21AD30AA9
:10049000E40AF50A982F9F5FC216D306E406F50614
:1004A000A0F7EC2FF0E0EA5CFE4F805D8083CF5F29
:1004B000CA01B901A50194017AD18D2FC11739F074
:1004C000C216D306E406F50660F38F5FDFCF2093F4
:1004D0003101309332014093330150933401C09283
:1004E0002D01D0922E01E0922F01F0923001109256
:1004F0003501EC2FF0E0EA5CFE4F8C2D805D8083AF
:10050000CF5FC093E100EC2FF0E0EA5CFE4F108279
:10051000DF91CF911F910F91FF90EF90DF90CF90DF
:10052000BF90AF909F908F90089580E4B6DD82EEEB
:1005300090E00ADE8AE7B1DD1092FA0083EF90E0E6
:1005400003DE8EE4AADD8FE2A8DD1092100188E0C0
:1005500091E0FADD87E5A1DD8FE49FDD10922401B3
:1005600081E291E0F1DD8FE298DD10921E018BE1D6
:1005700091E0EADD8FE291DD81E48FDD8DE38DDDB9
:1005800086E391E0E1DD80E288DD80912A0181331C
:1005900029F4EBE2F1E080818F5E808380912B0172
:1005A0007CDD80E27ADD0895811106C089E18093C7
:1005B0003D0110923E010895843229F410923D01CC
:1005C00010923E0108958C3241F480913D018F5F7D
:1005D00080933D0110923F01089590913D0191114A
:1005E00019C0833431F0833541F0813409F079C08A
:1005F00008C081E080933E01089583E580933E0129
:10060000089580913E01833509F46BC082E08093A8
:100610003E01089520913E01223009F046C09430F9
:1006200019F130F4913051F0923009F05AC011C0F4
:10063000973029F1993009F054C02CC090913F01B6
:10064000E92FF0E0EE5BFE4F80839F5F90933F01C8
:10065000089590913F01E92FF0E0E751FF4F80832B
:100660009F5F90933F01089590913F01E92FF0E043
:10067000E350FF4F80839F5F90933F0108959091D7
:100680003F01E92FF0E0E95DFE4F80839F5F90938B
:100690003F01089590913F01E92FF0E0E752FF4FAD
:1006A00080839F5F90933F0108952130D1F497306C
:1006B00019F09830B1F40BC090913F01E92FF0E0B0
:1006C000E353FF4F80839F5F90933F010895909184
:1006D0003F01E92FF0E0ED52FF4F80839F5F909341
:1006E0003F0108958AB18F738AB9439883E080BF30
:1006F00082E08EBD81E08093400147DD089591E066
:1007000090934B01A895809582BF80914B018823DF
:1007100029F058DD80914B018111FBCF089591E0C4
:1007200090934A01A895809582BF80914A018823C1
:1007300029F048DD80914A018111FBCF08953ADD0F
:1007400057DD18BA8FE387BB87E080BF82E08EBD9C
:1007500082E889BF88E181BD8FE081BD7894A8954A
:100760008AEFDDDF8AEFDBDF8AEFD9DF8AEFD7DFC1
:100770008AEFD5DF52DDB6DFD8DEF2CFFF27EE27D6
:10078000BB27AA2760FF04C0A20FB31FE41FF51FF9
:10079000220F331F441F551F9695879577956795B0
:1007A00089F70097760771F7CF01BD010895A1E29F
:1007B0001A2EAA1BBB1BFD010DC0AA1FBB1FEE1FDB
:1007C000FF1FA217B307E407F50720F0A21BB30B26
:1007D000E40BF50B661F771F881F991F1A9469F7A2
:1007E00060957095809590959B01AC01BD01CF01FE
:1007F0000895E199FECF1FBA8EBBE09A99278DB379
:060800000895F894FFCFFB
:00000001FF
